:020000040000FA
:10000000BAEF00F0080E086E1DC0EAFF1BC0E9FF42
:10001000195001B43BEC00F001A43DEC00F01DC010
:10002000E2FF1BC0E1FF1A50120FE96E181CEF1619
:1000300008500FE001B07FEC00F01AC0E9FF033276
:100040000232EF501810D8A01818EF6E04D8082EFE
:10005000F6D7B7EF00F01950E71A000000D000D033
:1000600000D000D000D000D000D000D000D000D010
:1000700000D0E71A1200EF1203D0FF0AEF1601D0EA
:10008000FF0AE988E92AEC16B7EF00F0E834E83413
:10009000FC0B0109C212C009C216C050F80B0309BB
:1000A000C06E000E036E320E74EC00F0C282C2B25B
:1000B000FED7C450036EC350B7EF00F0A66AA68007
:1000C000A850A92AB7EF00F0E86AA86EA66AA6842D
:1000D000550EA76EAA0EA76EA682A6B2FED7A6944C
:1000E000A92AB7EF00F0036AFE0F026E0400E86A67
:1000F000035AD8A01200020600D000D0F7D7046A35
:10010000056A04D00332023204360536FF0FFAE2E4
:100110000550036E0450026EB7EF00F0046E020E3D
:100120000AD0036A056A046E010E05D0036A056AE7
:10013000046E040E00D00A6E0550035C02E1045008
:10014000025C040ED8B0010ED8B4020E0A14D8A472
:10015000FF0EB7EF00F0E866FF0E0214D8A4FF0E02
:10016000B7EF00F00210D8A4FF0EB7EF00F00001C7
:1001700004001200FCEF06F06A6A686A9F0E6B6E5C
:10018000FB0E696E6E6A2FEE71F0020EDE6AE82ECB
:10019000FDD7160E706E07D06896000000000000B4
:1001A00000000000000068B6F7D704012C6B2D6B2F
:1001B000266B276B2E6B6D98206B000E1F6F120045
:1001C0000401000E1F630AD06D6A696A6D866DA610
:1001D000FDD70401010E1F6F140E6F6E010E1F6319
:1001E00009D06DBA07D0686A696A698069880401B4
:1001F000020E1F6F68A402D069B44CD86DB2120011
:1002000068A00ED069A00CD0B7DF0401040E1F6FE8
:100210002F0E026F040E036F080E016F8C0E006F1D
:1002200068A804D069A802D031D8689868AC04D016
:1002300069AC02D0D6DB689C68AA02D069BA18D82B
:1002400068A204D069A202D0CDDB686A0401040E62
:100250001F5D0DE369A612000401040E2B6F68A652
:1002600012006C50296F68961CD82B2FF8D71200FB
:1002700070A00AD00401800E006306D0840E0463CF
:1002800003D08C0E006F7090689A12006984689891
:100290006D82A5D36D92A4DB699468A41200689462
:1002A000FCD704012951FD0B000805E100513C0B6E
:1002B000340806E013D02951FD0B040814E01200A5
:1002C0000401000E04BF046F000E286F000E236FA0
:1002D000246B256B2C6B54D886DB5CD10401020E99
:1002E000236323D0F5D104012A6B04BD2A69080ECB
:1002F0001F6307D031516E6E0401100ED8B4040E86
:100300001F6F010E236311D0370E066F040E076FA7
:1003100090D90401020E286303D0840E046F1200EA
:10032000C80E2A67880E046F12000401020E2363B0
:1003300019D06DA817D0080E016314D000513C0BE2
:10034000340810E100BF0ED02F0E026F040E036FB1
:1003500014EE37F024EE2FF0080EE6CFDEFFE82E85
:10036000FCD70CD0000E236F080E016F2F0E026F0A
:10037000040E036F8C0E006F000E046F2D9F120091
:1003800004012F51600B000806E1050E306304D014
:100390002C8F080E1F6F1200060E305D6EE0090EE6
:1003A000306301D0C3D1080E30630CD0200E1A6F19
:1003B000040E1B6F000E1C6F2C81010E246F256B29
:1003C0002C8F1200000E306301D0BCD0010E305DC6
:1003D00022E0030E305D1FE00A0E30630ED0210EC6
:1003E0001A6F040E1B6F000E1C6F33511A272C81DD
:1003F000010E246F256B2C8F12000B0E306307D07B
:100400002C8F24EE21F0335131C4DBFF1200070E94
:1004100030631200E9D20401010E316309D02F517B
:100420001F0B000805E12C8F2E69030E30632E6B25
:10043000000E316312002F511F0B0208FBE13351F4
:100440000F0BF8E02C8F11D8030E306303D0840E0D
:10045000DF6E12001FEE70F03351E126FE0EE7163C
:10046000400E33AFC80EDF6E120024EE00F03345AD
:100470003335E846E846D92612000401800E2F6382
:100480001200C00E2C6F010E326311D0480E1A6F8D
:100490000A0E1B6F000E1C6F1AC4F6FF1BC4F7FF79
:1004A0001CC4F8FF0800F5CF24F4256B1200020EDF
:1004B000326325D0F86AF76A3145E8466C0FF66E6C
:1004C0000A0EF722000EF8220900F5CF1AF40900EF
:1004D000F5CF1BF40800F5CF1CF41AC4F6FF1BC4BB
:1004E000F7FF1CC4F8FF0900090009000900090012
:1004F000F5CF24F409000900F5CF25F41200030E0E
:1005000032631ED0F86AF76A3145E846580FF66E36
:100510000D0EF722000EF8220900F5CF1AF409009B
:10052000F5CF1BF40800F5CF1CF41AC4F6FF1BC46A
:10053000F7FF1CC4F8FF0800F5CF24F4256B120068
:100540002C6B12000401376B386B2F511F0B000806
:1005500004E12C8F2E67378310D02F511F0B010819
:1005600002E12C8F0AD02F511F0B020806E12C8FBD
:100570007CDFDF50040B01E037812CAF1200370E17
:100580001A6F040E1B6F000E1C6F2C81020E246F5D
:10059000256B120004016D982CBF1BD02DAF0ED01F
:1005A000020E236F056BC80E046F080E016F370E25
:1005B000026F040E036FC80E006F1200080E016F69
:1005C0002F0E026F040E036F8C0E006F840E046FEB
:1005D00012002DBFF3D72FAF1ED02551365D04E397
:1005E00007E12451355D04E235C424F436C425F412
:1005F00020D80401010E236F080E016F2F0E026F29
:10060000040E036F800E006F370E066F040E076F27
:10061000C80E046F1200020E236F056BC80E046F24
:10062000080E016F370E026F040E036FC80E006FC5
:10063000120004012451186F2551196F000803E1BD
:100640002451080811E00CE3000E286303D0010ECA
:10065000286F0AD0010E286307D0020E286F04D03D
:10066000080E186F000E196F0451FC0B1911046F5E
:100670001851056F245F1951255B24EE37F019518D
:10068000181125E02CB115D01AC4F6FF1BC4F7FFD2
:100690001CC4F8FF0900F5CFDEFF09001807FAE1D6
:1006A0001907F8E2F6CF1AF4F7CF1BF4F8CF1CF4D1
:1006B00012001AC4E1FF1BC4E2FFE6CFDEFF1807F9
:1006C000FCE11907FAE2E1CF1AF4E2CF1BF41200C1
:1006D00004010151186F276703D026511861186F64
:1006E0001851265FD8A0270714EE37F01DC4D9FF94
:1006F0001EC4DAFF185108E0E6CFDEFF1807FCE160
:10070000D9CF1DF4DACF1EF42751261109E00401D8
:10071000080E016F370E026F040E036F007D12008A
:100720002F0E026F040E036F2D9F120004012C8FF9
:100730002FEE71F0020EDE6AE82EFDD724EE21F0D6
:10074000020EDE6AE82EFDD73151206F03E1100E54
:100750001F6F1200200E1F6F48D1E66E2FEE70F053
:10076000E950D9261851DF6EE944E846E84604EE20
:1007700000F0E926020EE1CFEBFF030EE2CFEBFF24
:10078000E550E92AE7CFEDFFEF9EEF8C1200E66E11
:100790002FEE70F0E950D9261851DF6EE944E84693
:1007A000E84604EE04F0E926020EE1CFEBFF030E6B
:1007B000E2CFEBFFEF9EEF8C12000401186F200ECA
:1007C0001F5D000ED89009E1E944E846E84604EED2
:1007D00000F0E926000ED890EFBE1200020EEBCF1B
:1007E000D9FF030EEBCFDAFFEC501861186FFF0E44
:1007F000DB50ED6E185104E0DECFE6FFE82EFCD7AB
:10080000400EEF16EF7C880EEF121851D8801200C0
:100810000401186F200E1F5D000ED89009E1E94415
:10082000E846E84604EE04F0E926000ED890EFBE54
:100830001200020EEBCFD9FF030EEBCFDAFFFF0E53
:10084000DB501861186FE92A1851ED6ED9E0E6CF38
:10085000DEFFE82EFCD7D4D704012F511F0B01086F
:1008600005E1010E335D20E0000E33631200060E39
:1008700030635CD0210E326334D0010E206356D039
:10088000940E1A6F0A0E1B6F000E1C6F1AC4F6FF2F
:100890001BC4F7FF1CC4F8FF0800F5CF24F4256B38
:1008A0002C912C8D2C8F42D0060E30633FD0210E20
:1008B000326317D0010E206339D0C60E1A6F0A0EAC
:1008C0001B6F000E1C6F1AC4F6FF1BC4F7FF1CC47D
:1008D000F8FF0800F5CF24F4256B2C912C8D2C8F7C
:1008E00025D0010E335D5EE0220E32631AD0010E78
:1008F00020631CD0F40E1A6F0A0E1B6F000E1C6FC3
:10090000A20EF66E0A0EF76E000EF86E0900F5CF15
:1009100024F409000800F5CF25F42C912C8D2C8FA0
:1009200005D0230E326302D02C6B2C8F2F51600B1D
:1009300020089CE1010E305D33E0090E305D31E0AE
:10094000020E30630DD03F0E1A6F040E1B6F000EA7
:100950001C6F010E246F256B2C812C8D2C8F1200A7
:100960000A0E306305D02C6B2C8F32C43FF412007A
:10097000030E30630DD0400E1A6F040E1B6F000E75
:100980001C6F010E246F256B2C6B2C812C8F120099
:100990000B0E306312002C6B2C8F31C440F412000C
:1009A00012001200220E3263BCD7010E2063BED7A4
:1009B000700E1A6F0C0E1B6F000E1C6FA20EF66EDF
:1009C0000A0EF76E000EF86E0900F5CF24F4090048
:1009D0000800F5CF25F42C912C8D2C8FA7D7120071
:1009E00012001200120038D712000401010EE96E45
:1009F0001E0E186F14EE41F0100EAFDE0401010E52
:100A0000E96E1E0E186F14EE52F0100EC0DE0401D7
:100A1000020EE96E1E0E186F14EE63F0100E9DDECE
:100A20000401020EE96E1E0E186F14EE74F0100E23
:100A3000AED604016D84100EDA6ED96AD92EFED7B7
:100A4000DA2EFCD76D941200120C010C000C020C73
:100A5000000C000C000C080C320C150C070C100CD0
:100A6000000C010C010C020C030C010C700A0000BC
:100A7000090C020C420C000C020C010C000CC00C06
:100A8000320C090C040C000C000C010C030C000CC3
:100A9000000C020C090C210C110C010C000C010CB7
:100AA000220CBE0C000C070C050C810C030C100C66
:100AB000000C010C090C040C010C000C020C030CC2
:100AC000000C000C040C090C210C110C010C000C86
:100AD000010C220C740C000C070C050C820C030C8E
:100AE000100C000C010C070C050C020C030C100C74
:100AF000000C010C050C010C090C050CA10C010CDF
:100B0000850C010CA10C000C090C300C090C310CEB
:100B1000150C000C260CFF0CFF0C350C000C460CC1
:100B2000FF0CFF0C950C020C750C100C810C020CC8
:100B3000C00CA10C000C090C330C090C340C150C66
:100B4000000C260CFF0CFF0C350C000C460CFF0CA7
:100B5000FF0C950C020C750C100C810C020CC00CD7
:100B6000050C090C190C010C290C090C950C090C2D
:100B7000750C010C810C020C050C010C090C390CD4
:100B8000150C010C250C080C350C000C460C3B0C0C
:100B9000100C660C0E0C000C750C040C950C010C62
:100BA000810C420C750C030C950C010C810C030C90
:100BB000C00C050C010C090C050CA10C010C850CDA
:100BC000020CA10C000C090C300C090C310C150C9A
:100BD000000C260CFF0CFF0C350C000C460CFF0C17
:100BE000FF0C950C020C750C100C810C020CC00C47
:100BF000A10C000C090C330C090C340C150C000C66
:100C0000260CFF0CFF0C350C000C460CFF0CFF0CE7
:100C1000950C020C750C100C810C020CC00C050C10
:100C2000090C190C010C290C0A0C950C0A0C750CFA
:100C3000010C810C020C050C010C090C390C150C73
:100C4000010C250C080C350C000C460C3B0C100C50
:100C5000660C0E0C000C750C040C950C010C810C30
:100C6000420C750C020C950C010C810C030CC00C91
:100C7000050C010C090C060CA10C010C850C010CD7
:100C8000050C070C750C010C950C080C190CE00CEC
:100C9000290CE70C150C000C250C010C810C020C26
:100CA000750C080C950C060C150C000C250C640C2E
:100CB000050C070C190C000C290C650C810C000CA0
:100CC000C00C050C010C090C020CA10C010C850CCC
:100CD000020C090C010CA10C000C050C090C190CE0
:100CE000010C290C020C150C000C250C010C750CC8
:100CF000010C950C020C810C020C950C060C810C5D
:100D0000030C050C010C090C300C090C310C150CF2
:100D1000810C250C7F0C750C080C950C020C810CB9
:100D2000060CC00CC00C050C0C0C090C010CA10C21
:100D3000010C850C030C190C000C2A0C3C0C020C49
:100D4000150C000C260C3C0C020C950C010C750CBF
:100D5000100C810C000CC00C6C0D0000740D000018
:100D6000840D0000B80D0000D80D0000040C030C29
:100D7000090C040C080C030C440C000C430C000C74
:100D80004C0C000C1A0C030C410C000C520C000C07
:100D9000430C000C410C000C440C000C450C000CE6
:100DA000200C000C4A0C000C410C000C4D0C000CEB
:100DB0004D0C000C410C000C100C030C4A0C000CE8
:100DC000560C000C530C000C300C000C300C000CBA
:100DD000300C000C300C000C100C030C430C000CFD
:100DE0004F0C000C4E0C000C540C000C520C000C60
:100DF0004F0C000C4C0C000CA30E926E0D0EC16E2D
:100E0000800EC06E9368920E946EF00E956E070E73
:100E1000966E836A040E826E809C6B6B6C6B6D6B3E
:100E2000E968070EEA6EED6AE950EA10FCE1EF6A44
:100E30008B80010EA96E5EEC00F09E6F020EA96E13
:100E40005EEC00F09F6F04009E51FF08D8A42FEFC6
:100E500007F09E6B010EA96E9E5165EC00F0040038
:100E60009F51FF08D8A43BEF07F09F6B020EA96EBD
:100E70009F5165EC00F0030EA96E5EEC00F0A06FD0
:100E8000040EA96E5EEC00F09D6F04009D514108B8
:100E9000D8B463EF07F09E6B9F6B1F0EA06F010E1F
:100EA000A96E9E5165EC00F0020EA96E9F5165EC93
:100EB00000F0030EA96EA05165EC00F0040EA96EBF
:100EC000410E65EC00F00400D896A0A3D886D8B6F1
:100ED0006BEF07F06D8D0400D896A0A5D886D8B624
:100EE00073EF07F06D8F8BEC0CF0BCEC00F0B7ECFF
:100EF00000F060836085726B800E736F7A6B800E7A
:100F00007B6F7E6B800E7F6F766B800E776F7C6B56
:100F1000800E7D6F706B800E716F746B800E756FBD
:100F2000786B800E796F11EC09F09EC002F0000E14
:100F300091EC00F0146E9FC002F0000E91EC00F0F6
:100F4000166E14C002F01650B2EC00F0166E176E5A
:100F5000040016501710D8B4B0EF07F01AEC0CF0DC
:100F60000400D89660A1D886D8B6B8EF07F0609193
:100F70000400D89660A3D886D8B611EF08F0609325
:100F8000010E9C6F010E906F72C091F073C092F0D1
:100F90007AC093F07BC094F07EC095F07FC096F04D
:100FA00076C097F077C098F061B19D8161A19D9165
:100FB00061B79D8361A79D9362B19D8562A19D9557
:100FC00062BB9D8762AB9D9762BD9D8962AD9D9915
:100FD00062BF9D8B62AF9D9B63B19D8D63A19D9D03
:100FE00063B39D8F63A39D9F9DC099F063B59D8161
:100FF00063A59D9162B39D8362A39D9362B59D8518
:1010000062A59D9562B79D8762A79D9762B99D89EC
:1010100062A99D999D9B9D9D9D9F9DC09AF0B4EC5A
:101020000CF00400D89660A5D886D8B66DEF08F00D
:101030006095010E9C6F020E906F7CC091F07DC098
:1010400092F070C093F071C094F074C095F075C0C8
:1010500096F078C097F079C098F061B39D8161A354
:101060009D9161B59D8361A59D9361B99D8561A9A0
:101070009D9564B19D8764A19D9764BB9D8964AB78
:101080009D9964BD9D8B64AD9D9B64BF9D8D64AF38
:101090009D9D65B19D8F65A19D9F9DC099F065B394
:1010A0009D8165A39D9165B59D8365A59D9364B361
:1010B0009D8564A39D9564B59D8764A59D9764B740
:1010C0009D8964A79D9964B99D8B64A99D9B9D9DF5
:1010D0009D9F9DC09AF0B4EC0CF00400D89660A7D8
:1010E000D886D8B60CEF09F06097030E9C6FA76BFB
:1010F0000400080EA75DD8B088EF08F0A751900F44
:10110000E96E000EEA6AEA22EF6AA72BD8A0F0D7B0
:10111000020EA86F0400D896A5A1D886D8B69AEF7B
:1011200008F0A851900FE96E000EEA6AEA22290E33
:10113000EF6EA82B040080AAEEEF08F00400D8960A
:10114000A5A3D886D8B6AEEF08F0A851900FE96EE7
:10115000000EEA6AEA22520EEF6EA82B0400D8961F
:10116000A5A5D886D8B6BEEF08F0A851900FE96EB5
:10117000000EEA6AEA22510EEF6EA82B0400D89600
:10118000A5A7D886D8B6CEEF08F0A851900FE96E83
:10119000000EEA6AEA22500EEF6EA82B0400D896E1
:1011A000A5A9D886D8B6DEEF08F0A851900FE96E51
:1011B000000EEA6AEA224F0EEF6EA82B0400D896C2
:1011C000A5ABD886D8B6EEEF08F0A851900FE96E1F
:1011D000000EEA6AEA22280EEF6EA82B010E906F2D
:1011E000916BB4EC0CF0020E9C6F030E906F040038
:1011F000D896A5ADD886D8B600EF09F0E90E916F64
:101200000400D896A5AFD886D8B609EF09F0EA0E43
:10121000916F926BB4EC0CF0E0EC00F0B7EC00F0E6
:1012200082D6E86A83A8010FD8B46193D8A46183F9
:10123000E86A83AA010FD8B46195D8A46185E86AE9
:1012400083AC010FD8B46199D8A46189E86A83AEF0
:10125000010FD8B46491D8A46481E86A81A0010F19
:10126000D8B46493D8A46483E86A81A2010FD8B487
:101270006495D8A46485E86A81A4010FD8B4649702
:10128000D8A46487E86A81A6010FD8B46499D8A469
:101290006489E86A81A8010FD8B4649BD8A4648BE0
:1012A000E86A81AA010FD8B4649DD8A4648DE86A65
:1012B00081AC010FD8B4649FD8A4648FE86A81AE72
:1012C000010FD8B46591D8A46581E86A84A4010FA0
:1012D000D8B46593D8A46583E86A84A2010FD8B412
:1012E0006595D8A46585E86A84A0010FD8B4A59D4A
:1012F000D8A4A58D8988010E73EC00F0E86A83A854
:10130000010FD8B46191D8A46181E86A83AA010F62
:10131000D8B46197D8A46187E86A83AC010FD8B4C8
:101320006291D8A46281E86A83AE010FD8B4629357
:10133000D8A46283E86A81A0010FD8B46295D8A4CA
:101340006285E86A81A2010FD8B46297D8A4628747
:10135000E86A81A4010FD8B46299D8A46289E86AC6
:1013600081A6010FD8B4629BD8A4628BE86A83AED1
:10137000010FD8B4A593D8A4A583E86A81A0010F72
:10138000D8B4A595D8A4A585E86A81A2010FD8B4E0
:10139000A597D8A4A587E86A81A4010FD8B4A59918
:1013A000D8A4A589E86A81A6010FD8B4A59BD8A4C2
:1013B000A58BE86A81A8010FD8B4629DD8A4628D7C
:1013C000E86A81AA010FD8B4629FD8A4628FE86A44
:1013D00081AC010FD8B46391D8A46381E86A81AE6F
:1013E000010FD8B46393D8A46383E86A84A4010F7F
:1013F000D8B46395D8A46385E86A84A2010FD8B4F1
:10140000A591D8A4A581E86A84A0010FD8B4A59FAE
:10141000D8A4A58F8998E8EC0CF0ABB16283ABA19E
:101420006293ABB36285ABA36295ABB56287ABA5A4
:101430006297ABB76289ABA76299ACB16483ACA188
:101440006493ACB36485ACA36495ACB56487ACA578
:101450006497ACB76489ACA76499E86AA0B7E868F8
:10146000146EE86AA0B1E868166E14C002F0165057
:10147000ABEC00F0166E176E040016501710D8B4BF
:10148000CDEF0AF00400D89661A7D886D8B64AEF07
:101490000AF0A12BE86A61A7E868146EA1C002F007
:1014A000060E96EC00F0166E14C002F01650ABEC6F
:1014B00000F0166E176E040016501710D8B462EFC5
:1014C0000AF0A16BE86A61A7E868146EA1C002F097
:1014D000050E91EC00F0166E14C002F01650ABEC45
:1014E00000F0166E176E040016501710D8B480EF77
:1014F0000AF0A16B9E2B010EA96E9E5165EC00F0C7
:101500000400D89661A9D886D8B688EF0AF0A22B35
:10151000E86A61A9E868146EA2C002F0060E96ECB3
:1015200000F0166E14C002F01650ABEC00F0166E10
:10153000176E040016501710D8B4A0EF0AF0A26B73
:10154000E86A61A9E868146EA2C002F0050E91EC89
:1015500000F0166E14C002F01650ABEC00F0166EE0
:10156000176E040016501710D8B4CDEF0AF0A26B16
:101570000400D896A0A9D886D8B6C7EF0AF09E2B4B
:10158000010EA96E9E5165EC00F0CDEF0AF09F2B85
:10159000020EA96E9F5165EC00F004006651615D7A
:1015A000D8B40DEF0BF060810400E86A61B1010F5F
:1015B00066B10108D8B4DFEF0AF0608360910400DF
:1015C000E86A61B7010F66B70108D8B4EAEF0AF01C
:1015D000608360910400E86A61B3010F66B301089B
:1015E000D8B4F5EF0AF0608560910400E86A61B54F
:1015F000010F66B50108D8B400EF0BF0608560916B
:101600000400E86A61B9010F66B90108D8B40BEFAC
:101610000BF06085609161C066F067C002F068C041
:1016200003F063C005F062518EEC00F0D8A41EEF09
:101630000BF0608362C067F063C068F069C002F0BD
:101640006AC003F065C005F064518EEC00F0D8A4C8
:101650002FEF0BF0608564C069F065C06AF004008C
:10166000A651A55DD8B438EF0BF06087A5C0A6F0F1
:10167000120089948996000E46EC00F06E6F03C04C
:101680006FF06EC070F06FC071F0010E46EC00F0AC
:101690006E6F03C06FF06EC072F06FC073F089841C
:1016A0008996000E46EC00F06E6F03C06FF06EC0BE
:1016B00074F06FC075F0010E46EC00F06E6F03C061
:1016C0006FF06EC076F06FC077F089948986000E57
:1016D00046EC00F06E6F03C06FF06EC078F06FC024
:1016E00079F0010E46EC00F06E6F03C06FF06EC033
:1016F0007AF06FC07BF089848986000E46EC00F09A
:101700006E6F03C06FF06EC07CF06FC07DF0010E95
:1017100046EC00F06E6F03C06FF06EC07EF06FC0DD
:101720007FF080C002F081C003F071C005F07051FD
:101730008EEC00F0D8A4A2EF0BF0608570C080F0B2
:1017400071C081F082C002F083C003F073C005F065
:1017500072518EEC00F0D8A4B3EF0BF0608372C02E
:1017600082F073C083F084C002F085C003F075C0BE
:1017700005F074518EEC00F0D8A4C4EF0BF0608536
:1017800074C084F075C085F086C002F087C003F095
:1017900077C005F076518EEC00F0D8A4D5EF0BF0B1
:1017A000608376C086F077C087F088C002F089C079
:1017B00003F079C005F078518EEC00F0D8A4E6EF84
:1017C0000BF0608578C088F079C089F08AC002F09B
:1017D0008BC003F07BC005F07A518EEC00F0D8A4EA
:1017E000F7EF0BF060837AC08AF07BC08BF08CC07F
:1017F00002F08DC003F07DC005F07C518EEC00F04E
:10180000D8A408EF0CF060857CC08CF07DC08DF012
:101810008EC002F08FC003F07FC005F07E518EECC9
:1018200000F0D8A419EF0CF060837EC08EF07FC06A
:101830008FF012009EC002F0000E91EC00F0146ECA
:10184000E86A1EA0E868166E14C002F01650ABECF1
:1018500000F0166E176E040016501710D8B436EF4D
:101860000CF06D898BEC0CF01E80A36B04001EA0A5
:1018700052EF0CF0A32B0400A3512808D8A444EF86
:101880000CF06D998BEC0CF00400510EA35DD8A008
:1018900052EF0CF0A36B1E909E07010EA96E9E5195
:1018A00065EC00F09FC002F0000E91EC00F0146EA9
:1018B000E86A1EA2E868166E14C002F01650ABEC7F
:1018C00000F0166E176E040016501710D8B46EEFA5
:1018D0000CF06D8B8BEC0CF01E82A46B04001EA22E
:1018E0008AEF0CF0A42B0400A4512808D8A47CEFA4
:1018F0000CF06D9B8BEC0CF00400510EA45DD8A095
:101900008AEF0CF0A46B1E929F07020EA96E9F51E6
:1019100065EC00F012008C808C82830E1A6E0F0E24
:101920001C6E080E186E830E1B6E0F0E1D6E020EBF
:10193000196E050E016E6DC002F0036A02EC00F034
:101940006CC002F0036A02EC00F06BC002F0036AA4
:1019500002EC00F08C84020E73EC00F0E0EC00F07E
:10196000B7EC00F08C94120004009C510108D8A43C
:10197000C0EF0CF00B0E9B6F010EAA6FD6EF0CF0B0
:1019800004009C510208D8A4CCEF0CF0030E9B6F0E
:10199000020EAA6FD6EF0CF004009C510308D8A4E5
:1019A000D6EF0CF0080E9B6F020EAA6FE0EC00F071
:1019B000B7EC00F0AAC0E9FF10EE90F09B5108ECE4
:1019C00004F0B7EC00F0D8A0CFD7807C929C120036
:1019D000AB6B0400D89662A7D886D8B60AEF0DF094
:1019E0000400D89662A5D886D8B6FBEF0CF0060E98
:1019F000AB6F08EF0DF00400D89662A3D886D8B676
:101A000006EF0DF0080EAB6F08EF0DF0070EAB6F91
:101A10004AEF0DF00400D89662A5D886D8B620EF1C
:101A20000DF00400D89662A9D886D8B61CEF0DF048
:101A3000040EAB6F1EEF0DF0050EAB6F4AEF0DF00D
:101A40000400D89662A9D886D8B636EF0DF0040007
:101A5000D89662A3D886D8B632EF0DF0020EAB6FDF
:101A600034EF0DF0030EAB6F4AEF0DF00400D89683
:101A700062A3D886D8B64AEF0DF00400D89662A7C4
:101A8000D886D8B648EF0DF0080EAB6F4AEF0DF0D0
:101A9000010EAB6FAC6B0400D89664A7D886D8B69D
:101AA0006BEF0DF00400D89664A5D886D8B65DEF2C
:101AB0000DF0060EAC6F6AEF0DF00400D89664A32B
:101AC000D886D8B668EF0DF0080EAC6F6AEF0DF04F
:101AD000070EAC6F12000400D89664A5D886D8B65D
:101AE00080EF0DF00400D89664A9D886D8B67DEFB3
:101AF0000DF0040EAC6F7FEF0DF0050EAC6F120011
:101B00000400D89664A9D886D8B695EF0DF00400E5
:101B1000D89664A3D886D8B692EF0DF0020EAC6FBB
:101B200094EF0DF0030EAC6F12000400D89664A37E
:101B3000D886D8B6A9EF0DF00400D89664A7D88649
:101B4000D8B6A7EF0DF0080EAC6FA9EF0DF0010E9F
:061B5000AC6F1200100052
:020000040030CA
:0400000024063F1380
:0200050001A157
:060008000FC00FE00F40E5
:00000001FF
